:100000000C942A000C941F080C9452080C94850838
:100010000C9447000C9447000C9447000C94470044
:100020000C9447000C9447000C9447000C94470034
:100030000C9447000C9447000C9447000C94470024
:100040000C9447000C9447000C9447000C94470014
:100050000C94470011241FBECFE5D8E0DEBFCDBF12
:1000600011E0A0E6B0E0E4EFF2E202C005900D92EC
:10007000A038B107D9F711E0A0E8B1E001C01D92A6
:10008000A638B107E1F70E94B60D0C9478110C94D4
:100090000000EF92FF920F931F937B018C0120E0F1
:1000A00030E040E05FE40E94F50388238CF0C80153
:1000B000B70120E030E040E05FE40E94C1010E940F
:1000C00055049B01AC01205030404040504806C0D0
:1000D000C801B7010E9455049B01AC01B901CA01D6
:1000E0001F910F91FF90EF900895A0E0B0E0EBE733
:1000F000F0E00C944111DC012B01FA019C9192304B
:1001000008F439C1EB018881823008F433C194309E
:1001100069F4843009F02FC111969C91119789815F
:10012000981709F428C1A0E6B0E025C1843009F48D
:1001300021C18230A9F4923009F01DC19A01AD01AC
:1001400088E0EA010990AE01E90109929E0181501F
:10015000C1F7E201898111969C918923818308C1AD
:10016000923009F407C112962D903C901397EB0141
:100170008A819B811496AD90BD90CD90DC901797AD
:10018000EC80FD800E811F819101281B390BB90184
:1001900037FF04C066277727621B730B6032710537
:1001A0000CF061C0121613066CF537014801062EDB
:1001B00004C096948794779467940A94D2F721E0C8
:1001C00030E040E050E004C0220F331F441F551FB1
:1001D0006A95D2F721503040404050402E213F21B7
:1001E00040235123211531054105510521F021E01E
:1001F00030E040E050E079018A01E628F72808293C
:1002000019293CC0232BD1F1260E371E350146019A
:10021000062E04C096948794779467940A94D2F734
:1002200021E030E040E050E004C0220F331F441FC3
:10023000551F6A95D2F721503040404050402A2146
:100240003B214C215D21211531054105510521F04E
:1002500021E030E040E050E059016A01A628B728CB
:10026000C828D9280BC0821593052CF01C01AA249C
:10027000BB24650103C0EE24FF24870111969C91E5
:10028000D20111968C91981709F445C0992339F041
:10029000A80197012A193B094C095D0906C0A6016E
:1002A00095012E193F09400B510B57FD08C01182D3
:1002B0003382228224833583468357831DC081E0A5
:1002C00081833382228288279927DC01821B930B4A
:1002D000A40BB50B84839583A683B7830DC0220F2F
:1002E000331F441F551F24833583468357838281E0
:1002F000938101979383828324813581468157813D
:10030000DA01C9010197A109B1098F5F9F4FAF4F72
:10031000BF4328F30BC0918333822282EA0CFB1C7B
:100320000C1D1D1DE482F5820683178383E0808304
:10033000248135814681578157FF1AC0C901AA27F8
:1003400097FDA095BA2F81709070A070B0705695EF
:10035000479537952795822B932BA42BB52B848318
:100360009583A683B7838281938101969383828349
:10037000DF0101C0D201CD01CDB7DEB7E2E10C94BF
:100380005D11A0E2B0E0E7ECF1E00C944D1169835F
:100390007A838B839C832D833E834F835887E9E048
:1003A000EE2EF12CEC0EFD1ECE010196B7010E943F
:1003B00046068E010F5E1F4FCE010596B8010E94C2
:1003C00046068A8991E089278A8BC701B801AE0168
:1003D000475E5F4F0E9475000E947105A096E6E09F
:1003E0000C946911A0E2B0E0E8EFF1E00C944D113B
:1003F00069837A838B839C832D833E834F835887C5
:10040000F9E0EF2EF12CEC0EFD1ECE010196B701A6
:100410000E9446068E010F5E1F4FCE010596B80161
:100420000E944606C701B801AE01475E5F4F0E94B9
:1004300075000E947105A096E6E00C946911A0E297
:10044000B0E0E5E2F2E00C94411169837A838B839A
:100450009C832D833E834F835887CE010196BE0136
:10046000675F7F4F0E944606CE010596BE016F5E14
:100470007F4F0E9446069985923088F089898230A4
:10048000C8F0943019F4823051F404C0843029F457
:10049000923081F480E690E0C6C0923049F420E0CA
:1004A0009A858A89981321E02A87CE010996BBC0D4
:1004B000823049F420E09A858A89981321E02A8BBA
:1004C000CE014196B0C02D843E844F8458886D88FB
:1004D0007E888F88988CEE24FF248701AA24BB2471
:1004E000650140E050E060E070E0E0E0F0E0C10174
:1004F00081709070892BE9F0E60CF71C081D191D1E
:100500009A01AB012A0D3B1D4C1D5D1D80E090E062
:10051000A0E0B0E0E614F7040805190520F481E036
:1005200090E0A0E0B0E0BA01A901480F591F6A1F8E
:100530007B1FAA0CBB1CCC1CDD1C97FE08C081E0F5
:1005400090E0A0E0B0E0A82AB92ACA2ADB2A3196B6
:10055000E032F10549F0660C771C881C991C569412
:10056000479437942794C3CFFA85EA892B893C892D
:100570008B859C85280F391F2E5F3F4F17C0CA01FE
:1005800081709070892B61F016950795F794E79428
:1005900080E090E0A0E0B0E8E82AF92A0A2B1B2BC3
:1005A00076956795579547952F5F3F4F77FDE7CF36
:1005B0000CC0440F551F661F771F17FD4160EE0CDE
:1005C000FF1C001F111F21503040403090E05907A0
:1005D00090E0690790E4790760F32B8F3C8FDB0193
:1005E000CA018F779070A070B07080349105A1051A
:1005F000B10561F447FD0AC0E114F10401051105DC
:1006000029F0405C5F4F6F4F7F4F40781A8EFE1786
:1006100011F081E08A8F4D8F5E8F6F8F78A383E01A
:10062000898FCE0149960E947105A096E2E10C9453
:100630005D11A8E1B0E0EFE1F3E00C9449116983AA
:100640007A838B839C832D833E834F835887B9E0C5
:10065000EB2EF12CEC0EFD1ECE010196B7010E948F
:1006600046068E010F5E1F4FCE010596B8010E940F
:1006700046062985223008F47EC03989323010F4CC
:10068000B8017CC08A859A8989278A87243011F02D
:10069000223031F4231709F06EC060E670E06EC0BE
:1006A000343039F41D861E861F86188A1C861B86E8
:1006B00004C0323021F484E08987B7015FC02B8504
:1006C0003C858B899C89281B390B3C872B87ED84C3
:1006D000FE840F851889AD88BE88CF88D88CEA142F
:1006E000FB040C051D0540F4EE0CFF1C001F111F40
:1006F000215030403C872B8720E030E040E050E044
:1007000080E090E0A0E0B0E460E070E0EA14FB0478
:100710000C051D0540F0282B392B4A2B5B2BEA18C2
:10072000FB080C091D09B695A79597958795EE0CC2
:10073000FF1C001F111F6F5F7F4F6F31710531F775
:10074000DA01C9018F779070A070B0708034910584
:10075000A105B10561F427FD0AC0E114F10401050A
:10076000110529F0205C3F4F4F4F5F4F20782D87B8
:100770003E874F87588BBE01675F7F4FCB010E943A
:1007800071056896EAE00C946511A8E1B0E0EBEC25
:10079000F3E00C944D1169837A838B839C832D83C2
:1007A0003E834F83588789E0E82EF12CEC0EFD1E26
:1007B000CE010196B7010E9446068E010F5E1F4FC3
:1007C000CE010596B8010E9446068985823040F028
:1007D0008989823028F0C701B8010E94BE0601C095
:1007E0008FEF6896E6E00C946911A8E1B0E0EBEFBA
:1007F000F3E00C944D1169837A838B839C832D8362
:100800003E834F83588789E0E82EF12CEC0EFD1EC5
:10081000CE010196B7010E9446068E010F5E1F4F62
:10082000CE010596B8010E9446068985823040F0C7
:100830008989823028F0C701B8010E94BE0601C034
:100840008FEF6896E6E00C946911A8E1B0E0EBE266
:10085000F4E00C944D1169837A838B839C832D8300
:100860003E834F83588789E0E82EF12CEC0EFD1E65
:10087000CE010196B7010E9446068E010F5E1F4F02
:10088000CE010596B8010E9446068985823040F067
:100890008989823028F0C701B8010E94BE0601C0D4
:1008A00081E06896E6E00C946911ACE0B0E0EBE51D
:1008B000F4E00C94511169837A838B839C83CE017D
:1008C0000196BE016B5F7F4F0E9446068D8182308C
:1008D00061F1823050F1843021F48E81882351F10E
:1008E0002EC02F81388537FD20C06E812F31310514
:1008F0001CF06623F9F023C08EE190E0821B930B7D
:1009000029853A854B855C8504C056954795379572
:1009100027958A95D2F76623B1F05095409530958A
:1009200021953F4F4F4F5F4F0EC020E030E040E039
:1009300050E009C02FEF3FEF4FEF5FE704C020E02A
:1009400030E040E050E8B901CA012C96E2E00C9496
:100950006D11A8E0B0E0EFEAF4E00C9449117B01DE
:100960008C01611571058105910519F482E0898377
:1009700060C083E089838EE1C82ED12CDC82CB82DB
:10098000ED82FE820F831887C801B7010E942205FD
:10099000FC013197F7FF3BC0222733272E1B3F0B6B
:1009A00057016801022E04C0D694C794B794A79447
:1009B0000A94D2F740E050E060E070E081E090E01F
:1009C000A0E0B0E004C0880F991FAA1FBB1F2A95A2
:1009D000D2F70197A109B1098E219F21A023B1234C
:1009E0000097A105B10521F041E050E060E070E022
:1009F0004A295B296C297D294D835E836F83788723
:100A00008EE190E08E1B9F0B9C838B8312C03097EE
:100A100081F00E2E04C0EE0CFF1C001F111F0A9463
:100A2000D2F7ED82FE820F831887CE1ADF0ADC82AE
:100A3000CB821A82CE0101960E9471052896EAE0C7
:100A40000C946511EF92FF920F931F937B018C0121
:100A500080E0E81680E0F80681E0080780E01807EB
:100A600088F48FEFE816F1040105110531F028F044
:100A700088E090E0A0E0B0E017C080E090E0A0E067
:100A8000B0E012C080E0E81680E0F80680E00807D9
:100A900081E0180728F088E190E0A0E0B0E004C011
:100AA00080E190E0A0E0B0E020E230E040E050E003
:100AB000281B390B4A0B5B0B04C016950795F7945E
:100AC000E7948A95D2F7F701E859FF4F8081281BF8
:100AD000310941095109C9011F910F91FF90EF9010
:100AE0000895DF92EF92FF920F931F93FC01E48031
:100AF000F58006811781D1808081823048F480E0C2
:100B000090E0A0E1B0E0E82AF92A0A2B1B2BA5C04F
:100B1000843009F49FC0823021F4EE24FF24870141
:100B200005C0E114F1040105110519F4E0E0F0E05D
:100B300096C0628173819FEF623879070CF05BC0C9
:100B400022E83FEF261B370B2A3131052CF020E03D
:100B500030E040E050E02AC0B801A701022E04C0F6
:100B600076956795579547950A94D2F781E090E07E
:100B7000A0E0B0E004C0880F991FAA1FBB1F2A95F0
:100B8000D2F70197A109B1098E219F21A023B1239A
:100B90000097A105B10521F081E090E0A0E0B0E070
:100BA0009A01AB01282B392B4A2B5B2BDA01C901A7
:100BB0008F779070A070B07080349105A105B10559
:100BC00039F427FF09C0205C3F4F4F4F5F4F04C0EF
:100BD000215C3F4F4F4F5F4FE0E0F0E02030A0E05E
:100BE0003A07A0E04A07A0E45A0710F0E1E0F0E07D
:100BF00079018A0127C06038710564F5FB01E1586D
:100C0000FF4FD801C7018F779070A070B07080340B
:100C10009105A105B10539F4E7FE0DC080E490E02F
:100C2000A0E0B0E004C08FE390E0A0E0B0E0E80E08
:100C3000F91E0A1F1B1F17FF05C016950795F7948D
:100C4000E794319687E016950795F794E7948A958F
:100C5000D1F705C0EE24FF248701EFEFF0E06E2FFF
:100C6000679566276795902F9F77D794DD24D79453
:100C70008E2F8695492F462B582F5D29B701CA0123
:100C80001F910F91FF90EF90DF900895FC01DB0121
:100C9000408151812281622F6F7770E0221F2227CD
:100CA000221F9381892F880F822B282F30E0991FD4
:100CB0009927991F11969C93119721153105A9F534
:100CC000411551056105710511F482E037C082E8D4
:100CD0009FEF13969C938E9312979A01AB0167E056
:100CE000220F331F441F551F6A95D1F783E08C9361
:100CF0000DC0220F331F441F551F12968D919C91DA
:100D00001397019713969C938E931297203080E04F
:100D1000380780E0480780E4580758F314962D936D
:100D20003D934D935C93179708952F3F310579F4C8
:100D3000411551056105710519F484E08C930895FE
:100D400064FF03C081E08C9312C01C9210C02F5727
:100D5000304013963C932E93129783E08C9387E058
:100D6000440F551F661F771F8A95D1F7706414963C
:100D70004D935D936D937C93179708951F93DC01BA
:100D8000FB019C91923008F447C08081823008F4C6
:100D900043C0943051F411961C91843099F58181AF
:100DA000682F70E0611B71093FC0843021F09230E0
:100DB00031F48230B9F18181882389F12DC01196F7
:100DC0001C9111978230F1F081811817D9F4129695
:100DD0002D913C911397828193818217930794F010
:100DE00028173907BCF014968D919D910D90BC91F8
:100DF000A02D2481358146815781281739074A075C
:100E00005B0718F4112341F00AC082179307A40767
:100E1000B50740F4112319F061E070E005C06FEFF1
:100E20007FEF02C060E070E0CB011F910895DF9377
:100E3000CF93CDB7DEB7EAE3F0E08CE58083E7E35C
:100E4000F0E08DEF8083E4E3F0E08FEF8083E1E377
:100E5000F0E08FEF8083EBE3F0E081E08083E8E374
:100E6000F0E01082E5E3F0E01082E2E3F0E01082CF
:100E7000CF91DF910895DF93CF93CDB7DEB778940C
:100E8000CF91DF910895DF93CF93CDB7DEB7F8947C
:100E9000CF91DF910895DF93CF93CDB7DEB7ABE568
:100EA000B0E0EBE5F0E0808180648C93CF91DF913E
:100EB0000895DF93CF93CDB7DEB7ABE5B0E0EBE5B8
:100EC000F0E0808180688C93CF91DF910895DF936B
:100ED000CF93CDB7DEB7ABE5B0E0EBE5F0E08081D6
:100EE00080628C93CF91DF910895DF93CF93CDB73C
:100EF000DEB7ABE5B0E0EBE5F0E080818F7B8C9373
:100F0000CF91DF910895DF93CF93CDB7DEB7ABE5F7
:100F1000B0E0EBE5F0E080818F778C93CF91DF91AB
:100F20000895DF93CF93CDB7DEB7ABE5B0E0EBE547
:100F3000F0E080818F7D8C93CF91DF910895DF93D6
:100F4000CF93CDB7DEB7A5E5B0E0E5E5F0E0808171
:100F500081608C93A5E5B0E0E5E5F0E080818260FA
:100F60008C930E944B07CF91DF910895DF93CF932D
:100F7000CDB7DEB7A5E5B0E0E5E5F0E080818460BF
:100F80008C93A5E5B0E0E5E5F0E0808188608C9386
:100F90000E945907CF91DF910895DF93CF93CDB78A
:100FA000DEB7A4E5B0E0E4E5F0E0808180648C93F6
:100FB0000E946707CF91DF910895DF93CF9300D010
:100FC000CDB7DEB789836A830F900F90CF91DF9101
:100FD0000895DF93CF9300D0CDB7DEB79A8389838E
:100FE00089819A8190938101809380010F900F9065
:100FF000CF91DF910895DF93CF9300D0CDB7DEB7C7
:101000009A83898389819A81909383018093820155
:101010000F900F90CF91DF910895DF93CF9300D081
:10102000CDB7DEB79A83898389819A8190938501B0
:10103000809384010F900F90CF91DF9108951F92BC
:101040000F920FB60F9211242F933F934F935F93FC
:101050006F937F938F939F93AF93BF93EF93FF9380
:10106000DF93CF93CDB7DEB780918001909181015E
:10107000009729F0E0918001F09181010995CF91CD
:10108000DF91FF91EF91BF91AF919F918F917F91F0
:101090006F915F914F913F912F910F900FBE0F90E5
:1010A0001F9018951F920F920FB60F9211242F9335
:1010B0003F934F935F936F937F938F939F93AF93E0
:1010C000BF93EF93FF93DF93CF93CDB7DEB78091BC
:1010D000820190918301009729F0E0918201F091C3
:1010E00083010995CF91DF91FF91EF91BF91AF916E
:1010F0009F918F917F916F915F914F913F912F9130
:101100000F900FBE0F901F9018951F920F920FB661
:101110000F9211242F933F934F935F936F937F937D
:101120008F939F93AF93BF93EF93FF93DF93CF93EF
:10113000CDB7DEB78091840190918501009729F0A9
:10114000E0918401F09185010995CF91DF91FF91A4
:10115000EF91BF91AF919F918F917F916F915F912F
:101160004F913F912F910F900FBE0F901F901895A8
:10117000DF93CF9300D00F92CDB7DEB789836A8318
:101180004B838A81883008F054C08981853008F00B
:1011900050C08B81813029F58981882F90E0880F9C
:1011A000991FFC01E859FE4FA081B1818981882FE8
:1011B00090E0880F991FFC01E859FE4F0190F081E3
:1011C000E02D8081482F8A81282F30E081E090E057
:1011D000022E02C0880F991F0A94E2F7842B8C9389
:1011E00028C08B81882329F58981882F90E0880F7A
:1011F000991FFC01E859FE4FA081B1818981882F98
:1012000090E0880F991FFC01E859FE4F0190F08192
:10121000E02D8081482F8A81282F30E081E090E006
:10122000022E02C0880F991F0A94E2F7809584234A
:101230008C930F900F900F90CF91DF910895DF93D3
:10124000CF9300D00F92CDB7DEB78A836B838FEF39
:1012500089838B818830E8F48A818530D0F48A8153
:10126000882F90E0880F991FFC01E059FE4F0190F4
:10127000F081E02D8081282F30E08B81882F90E055
:10128000A90102C0559547958A95E2F7CA01817078
:10129000898389810F900F900F90CF91DF910895EE
:1012A000DF93CF9300D0CDB7DEB789836A8389817E
:1012B000853068F48981882F90E0880F991FFC01A0
:1012C000E859FE4F0190F081E02D8A8180830F90D4
:1012D0000F90CF91DF910895DF93CF930F92CDB709
:1012E000DEB789838981882F90E0880F991FFC01E0
:1012F000E059FE4F0190F081E02D80810F90CF9159
:10130000DF910895DF93CF93CDB7DEB7A6E2B0E0CB
:10131000E6E2F0E0808181608C93A6E2B0E0E6E254
:10132000F0E0808182608C93A6E2B0E0E6E2F0E03B
:10133000808184608C93A7E2B0E0E7E2F0E08081F6
:1013400080648C93A7E2B0E0E7E2F0E080818F77E1
:101350008C93A6E2B0E0E6E2F0E0808180688C93B6
:10136000CF91DF910895DF93CF930F92CDB7DEB782
:1013700089838981803278F4A7E2B0E0E7E2F0E087
:101380008081807E8C93A7E2B0E0E7E2F0E090817C
:101390008981892B8C93A6E2B0E0E6E2F0E08081BF
:1013A00080648C93E6E2F0E0808182958F70882FD4
:1013B00090E0817090700097A9F3A6E2B0E0E6E2B9
:1013C000F0E0808180618C93E4E2F0E080819181A3
:1013D0000F90CF91DF910895DF93CF9300D0CDB7D9
:1013E000DEB79A838983E981FA818581E981FA816F
:1013F0009681692F41E00E94B8080F900F90CF911D
:10140000DF910895DF93CF9300D0CDB7DEB79A83F5
:101410008983E981FA818581E981FA819681692F41
:1014200040E00E94B8080F900F90CF91DF9108958F
:10143000DF93CF9300D000D0CDB7DEB78A837C8313
:101440006B83198224C0EB81FC8150818981282F14
:1014500030E08B819C81820F931FFC01319640818B
:101460008A81282F30E08981882F90E0B90102C05D
:10147000759567958A95E2F7CB01982F9170852F26
:10148000642F492F0E94B80889818F5F89838981E1
:101490008430C8F20F900F900F900F90CF91DF9192
:1014A0000895DF93CF9300D000D00F92CDB7DEB771
:1014B00089837B836A835D834C8389810E94780A58
:1014C000898389818F702C813D81B9010E94180A1E
:1014D000898182958F702A813B81B9010E94180A07
:1014E0000F900F900F900F900F90CF91DF91089574
:1014F000DF93CF9300D000D0CDB7DEB78B838B8145
:10150000843610F01C8214C08B819AE0692F0E94EF
:1015100021118295807F8A838B819AE0692F0E94B6
:101520002111892F89839A818981292F282B2C8346
:101530008C810F900F900F900F90CF91DF910895B5
:10154000DF93CF9300D000D000D0CDB7DEB79C831F
:101550008B837E836D83ED81FE818FEF8083EB81B2
:10156000FC818FEF8083198247C08981882F90E0AA
:10157000FC01E858FE4F908180E0692F40E00E9416
:10158000B8081A8227C08A81882F90E0FC01E458AD
:10159000FE4F908181E0692F0E941F098823B9F4D2
:1015A00004C0ED81FE81898180838A81882F90E04B
:1015B000FC01E458FE4F908181E0692F0E941F09D1
:1015C000882379F3EB81FC818A81808319C08A8129
:1015D0008F5F8A838A818430B0F28981882F90E07E
:1015E000FC01E858FE4F908180E0692F41E00E94A5
:1015F000B80889818F5F89838981843008F4B5CFE9
:1016000026960FB6F894DEBF0FBECDBFCF91DF9107
:101610000895DF93CF93CDB7DEB72E970FB6F8942A
:10162000DEBF0FBECDBF81E063E041E00E94B8089D
:1016300080E090E0A0E2B1E48B879C87AD87BE8715
:101640006B857C858D859E8520E030E04AE755E4FA
:101650000E941F02DC01CB018F839887A987BA877C
:101660006F81788589859A8520E030E040E85FE3E6
:101670000E94250488232CF481E090E09E838D83D2
:101680003FC06F81788589859A8520E03FEF4FE7DD
:1016900057E40E94C50318164CF56B857C858D8533
:1016A0009E8520E030E040E251E40E941F02DC0110
:1016B000CB01BC01CD010E944900DC01CB019E831E
:1016C0008D830FC080E991E09C838B838B819C810B
:1016D0000197F1F79C838B838D819E8101979E8377
:1016E0008D838D819E81009769F714C06F81788505
:1016F00089859A850E944900DC01CB019E838D83F8
:101700008D819E819A83898389819A810197F1F7DE
:101710009A83898381E063E040E00E94B8082E96B6
:101720000FB6F894DEBF0FBECDBFCF91DF91089505
:10173000DF93CF930F92CDB7DEB789838981982F3E
:10174000917080E064E0492F0E94B80889818695F5
:10175000982F917080E065E0492F0E94B808898138
:1017600086958695982F917080E066E0492F0E94BB
:10177000B8088981869586958695982F917080E026
:1017800067E0492F0E94B8080F90CF91DF9108952C
:10179000DF93CF930F92CDB7DEB7898381E062E00C
:1017A00040E00E94B80881E061E041E00E94B80892
:1017B000898182958F700E94980B0E94090B898104
:1017C0000E94980B0E94090B0F90CF91DF91089512
:1017D000DF93CF930F92CDB7DEB7898381E062E0CC
:1017E00040E00E94B80881E061E040E00E94B80853
:1017F000898182958F700E94980B0E94090B8981C4
:101800000E94980B0E94090B0F90CF91DF910895D1
:10181000DF93CF93CDB7DEB72E970FB6F894DEBF28
:101820000FBECDBF80E090E0A0E2B2E48B879C8742
:10183000AD87BE876B857C858D859E8520E030E0F9
:101840004AE755E40E941F02DC01CB018F83988791
:10185000A987BA876F81788589859A8520E030E0ED
:1018600040E85FE30E94250488232CF481E090E0A7
:101870009E838D833FC06F81788589859A8520E01E
:101880003FEF4FE757E40E94C50318164CF56B85F0
:101890007C858D859E8520E030E040E251E40E9409
:1018A0001F02DC01CB01BC01CD010E944900DC011B
:1018B000CB019E838D830FC080E991E09C838B8355
:1018C0008B819C810197F1F79C838B838D819E8115
:1018D00001979E838D838D819E81009769F714C047
:1018E0006F81788589859A850E944900DC01CB014A
:1018F0009E838D838D819E819A83898389819A813C
:101900000197F1F79A83898382E00E94980B0E94E5
:10191000090B82E00E94980B0E94090B88E00E944C
:10192000980B0E94090B8FE00E94E80B81E00E9457
:10193000E80B2E960FB6F894DEBF0FBECDBFCF9149
:10194000DF910895DF93CF9300D0CDB7DEB79A83B0
:1019500089830BC0E981FA81208189819A8101966E
:101960009A838983822F0E94C80BE981FA81808142
:10197000882381F70F900F90CF91DF910895DF9327
:10198000CF93CDB7DEB727970FB6F894DEBF0FBE63
:10199000CDBF9F838E831D821C821B821A820FC043
:1019A0008E819F812AE030E0B9010E942D11CB0188
:1019B0009F838E838A819B8101969B838A838E81FC
:1019C0009F812AE030E0B9010E942D11009741F378
:1019D00022C08C819D819C01220F331FC901880F79
:1019E000991F880F991FF901E80FF91F8E819F81B8
:1019F0002AE030E0B9010E942D118E0F9F1F9D83B8
:101A00008C838E819F812AE030E0B9010E942D11E4
:101A1000CB019F838E838E819F810097D1F68C812D
:101A20009D819F838E8314C08E819F812AE030E048
:101A3000B9010E942D11805D0E94C80B8E819F818B
:101A40002AE030E0B9010E942D11CB019F838E83E3
:101A50008E819F81009741F7198206C080E30E9422
:101A6000C80B89818F5F89838981282F30E08A8123
:101A70009B812817390790F327960FB6F894DEBF9D
:101A80000FBECDBFCF91DF910895DF93CF9300D0EC
:101A90000F92CDB7DEB78A836B838B81882F90E05E
:101AA0000024969587950794969587950794982F87
:101AB000802D982F8A81890F898389818068898305
:101AC00089810E94E80B0F900F900F90CF91DF91CA
:101AD0000895DF93CF93CDB7DEB727970FB6F8946D
:101AE000DEBF0FBECDBF9C838B836D834E832F8360
:101AF00019828D81882F90E0880F991F880F991F78
:101B0000880F991F8A838A8180648A838A810E94D0
:101B1000E80B19820EC08981282F30E08B819C81CF
:101B2000FC01E20FF31F80810E94C80B89818F5F47
:101B300089838981883078F38E816F810E94450D79
:101B40008D810E94C80B27960FB6F894DEBF0FBE9A
:101B5000CDBFCF91DF910895DF93CF93CDB7DEB79F
:101B600081E00E94E80BCF91DF910895DF93CF933E
:101B7000CDB7DEB7C955D0400FB6F894DEBF0FBE63
:101B8000CDBF0E9417070E948209FE01EC5BFF4F48
:101B90001082FE01EC5BFF4F81E08183FE01EC5B74
:101BA000FF4F82E08283FE01EC5BFF4F83E0838383
:101BB000FE01E85BFF4F84E08083FE01E85BFF4F9E
:101BC00085E08183FE01E85BFF4F86E08283FE01B2
:101BD000E85BFF4F87E08383FE01EC5BFF4F808172
:101BE000FE01E45BFF4F8183FE01EC5BFF4F8181CF
:101BF000FE01E45BFF4F8283FE01EC5BFF4F8281BD
:101C0000FE01E45BFF4F8383FE01EC5BFF4F8381AA
:101C1000FE01E45BFF4F8483FE01E45BFF4F83E042
:101C20008083FE01E45BFF4F1682FE01E45BFF4F01
:101C30001582FE01E85BFF4F8081FE01ED5AFF4FE8
:101C40008183FE01E85BFF4F8181FE01ED5AFF4F6A
:101C50008283FE01E85BFF4F8281FE01ED5AFF4F58
:101C60008383FE01E85BFF4F8381FE01ED5AFF4F46
:101C70008483FE01ED5AFF4F83E08083FE01ED5A1D
:101C8000FF4F1682FE01ED5AFF4F15820E943B075F
:101C9000FE01ED5BFF4F1082FE01ED5BFF4F808187
:101CA0000E94780AFE01ED5BFF4F8083FE01EF5B2F
:101CB000FF4F118210828CE390E0FE01FF9691832A
:101CC000808381E490E09EAF8DAF81E090E09CAF97
:101CD0008BAF81E090E09AAF89AF0E941711CC01E1
:101CE000A0E0B0E0BC01CD010E94A904DC01CB0161
:101CF000BC01CD012AE037ED4BE850E40E941F0201
:101D0000DC01CB01BC01CD0120E030E040E251E438
:101D10000E941903DC01CB01BC01CD010E945504D6
:101D2000DC01CB019EAF8DAF8FAD9E01245B3F4F99
:101D3000AE014D5A5F4FB9010E94510A8BAD9CAD67
:101D400081309105F1F4FE01FF96208131818DAD46
:101D50009EAD8217930724F40E94FF100E94E710A3
:101D6000FE01FF96208131818DAD9EAD2817390788
:101D700024F40E940B110E94F31081E090E09CAFCC
:101D80008BAF81E061E00E941F09813009F08CC0B7
:101D900081E090E09CAF8BAFFE01FF968081918146
:101DA0000196FE01FF9691838083FE01FF9680815C
:101DB00091818436910534F08DE290E0FE01FF962A
:101DC0009183808380E090E0A0EAB1E48DAB9EAB8C
:101DD000AFABB8AF6DA97EA98FA998AD20E030E078
:101DE0004AE755E40E941F02DC01CB0189AB9AABA4
:101DF000ABABBCAB69A97AA98BA99CA920E030E068
:101E000040E85FE30E94250488232CF481E090E001
:101E100098AB8FA73FC069A97AA98BA99CA920E09C
:101E20003FEF4FE757E40E94C50318164CF56DA924
:101E30007EA98FA998AD20E030E040E251E40E94F5
:101E40001F02DC01CB01BC01CD010E944900DC0175
:101E5000CB0198AB8FA70FC080E991E09EA78DA71B
:101E60008DA59EA50197F1F79EA78DA78FA598A98F
:101E7000019798AB8FA78FA598A9009769F714C011
:101E800069A97AA98BA99CA90E944900DC01CB0110
:101E900098AB8FA78FA598A99CA78BA78BA59CA56E
:101EA0000197F1F79CA78BA780E065E00E941F09CE
:101EB000813009F07FC080E090E0A8ECB1E48FA30E
:101EC00098A7A9A7BAA76FA178A589A59AA520E088
:101ED00030E04AE755E40E941F02DC01CB018BA3EE
:101EE0009CA3ADA3BEA36BA17CA18DA19EA120E06C
:101EF00030E040E85FE30E94250488232CF481E071
:101F000090E09AA389A33FC06BA17CA18DA19EA163
:101F100020E03FEF4FE757E40E94C50318164CF549
:101F20006FA178A589A59AA520E030E040E251E4B0
:101F30000E941F02DC01CB01BC01CD010E944900BF
:101F4000DC01CB019AA389A30FC080E991E098A39B
:101F50008F8F8F8D98A10197F1F798A38F8F89A10B
:101F60009AA101979AA389A389A19AA1009769F7D9
:101F700014C06BA17CA18DA19EA10E944900DC012F
:101F8000CB019AA389A389A19AA19E8F8D8F8D8D54
:101F90009E8D0197F1F79E8F8D8F81E090E09CAF31
:101FA0008BAFFE01FF96808191810197FE01FF9624
:101FB0009183808380E067E00E941F09813009F0EF
:101FC0008CCE0E94E7100E94F31080E090E0A8EC15
:101FD000B1E4898F9A8FAB8FBC8F698D7A8D8B8D91
:101FE0009C8D20E030E04AE755E40E941F02DC01AE
:101FF000CB018D8B9E8BAF8BB88F6D897E898F893E
:10200000988D20E030E040E85FE30E9425048823BB
:102010002CF481E090E09C8B8B8B3FC06D897E8996
:102020008F89988D20E03FEF4FE757E40E94C5036A
:1020300018164CF5698D7A8D8B8D9C8D20E030E0E3
:1020400040E251E40E941F02DC01CB01BC01CD0142
:102050000E944900DC01CB019C8B8B8B0FC080E977
:1020600091E09A8B898B89899A890197F1F79A8BEC
:10207000898B8B899C8901979C8B8B8B8B899C8905
:10208000009769F795C06D897E898F89988D0E9428
:102090004900DC01CB019C8B8B8B8B899C89988BB5
:1020A0008F878F8598890197F1F7988B8F8780C0EC
:1020B0000E94E7100E94F31080E067E00E941F0971
:1020C000813009F075C080E090E0A8ECB1E48B8726
:1020D0009C87AD87BE876B857C858D859E8520E03E
:1020E00030E04AE755E40E941F02DC01CB018F83F8
:1020F0009887A987BA876F81788589859A8520E036
:1021000030E040E85FE30E94250488232CF481E05E
:1021100090E09E838D833FC06F81788589859A8505
:1021200020E03FEF4FE757E40E94C50318164CF537
:102130006B857C858D859E8520E030E040E251E412
:102140000E941F02DC01CB01BC01CD010E944900AD
:10215000DC01CB019E838D830FC080E991E09C83DD
:102160008B838B819C810197F1F79C838B838D817D
:102170009E8101979E838D838D819E81009769F753
:1021800014C06F81788589859A850E944900DC0199
:10219000CB019E838D838D819E819A8389838981E2
:1021A0009A810197F1F79A8389831AAE19AE06C016
:1021B00089AD9AAD8130910509F47ACF81E090E044
:1021C0009CAF8BAF81E090E09AAF89AF86CDDF9373
:1021D000CF93CDB7DEB781E060E040E00E94B80861
:1021E000CF91DF910895DF93CF93CDB7DEB782E033
:1021F00060E040E00E94B808CF91DF910895DF933E
:10220000CF93CDB7DEB782E060E041E00E94B8082E
:10221000CF91DF910895DF93CF93CDB7DEB781E003
:1022200060E041E00E94B808CF91DF910895DF930C
:10223000CF93CDB7DEB781E00E94B309CF91DF9194
:102240000895991B79E004C0991F961708F0961B12
:10225000881F7A95C9F780950895AA1BBB1B51E189
:1022600007C0AA1FBB1FA617B70710F0A61BB70B06
:10227000881F991F5A95A9F780959095BC01CD01AB
:1022800008952F923F924F925F926F927F928F921A
:102290009F92AF92BF92CF92DF92EF92FF920F93F5
:1022A0001F93CF93DF93CDB7DEB7CA1BDB0B0FB6FF
:1022B000F894DEBF0FBECDBF09942A8839884888BC
:1022C0005F846E847D848C849B84AA84B984C88452
:1022D000DF80EE80FD800C811B81AA81B981CE0F49
:1022E000D11D0FB6F894DEBF0FBECDBFED0108952E
:0422F000F894FFCF90
:1022F40000000000000000000001020203030303C9
:102304000404040404040404050505050505050581
:102314000505050505050505060606060606060661
:102324000606060606060606060606060606060649
:102334000606060606060606070707070707070731
:102344000707070707070707070707070707070719
:102354000707070707070707070707070707070709
:1023640007070707070707070707070707070707F9
:1023740007070707070707070808080808080808E1
:1023840008080808080808080808080808080808C9
:1023940008080808080808080808080808080808B9
:1023A40008080808080808080808080808080808A9
:1023B4000808080808080808080808080808080899
:1023C4000808080808080808080808080808080889
:1023D4000808080808080808080808080808080879
:1023E4000808080808080808080808080808080869
:1023F40008080808080808083B00380035003200BF
:1024040039003600330030000001020300010203EA
:00000001FF
